S014000042696E61727920436C6F636B2E737265639F
S11300000C942A000C9447000C9447000C9447006D
S11300100C9447000C9447000C9447000C94EF0395
S11300200C9447000C9447000C9447000C94470030
S11300300C9447000C9447000C9447000C94470020
S11300400C9447000C9447000C9447000C94470010
S11300500C94470011241FBECFE5D8E0DEBFCDBF0E
S113006010E0A0E6B0E0E2ECF8E002C005900D92EA
S1130070A836B107D9F720E0A8E6B0E001C01D9288
S1130080A037B207E1F70E9400020C945F040C94BD
S113009000002F923F924F925F926F927F928F92C5
S11300A09F92AF92BF92CF92DF92EF92FF920F9303
S11300B01F93CF93DF93CDB7DEB76A970FB6F8944B
S11300C0DEBF0FBECDBF20916E0030916F00ADEC4E
S11300D0BCEC0E9450048C01169507951695079563
S11300E016950795E0916E00F0916F009F010E94B4
S11300F050049695879596958795969587959C0136
S1130100220F331F880F991F880F991F880F991F7B
S1130110820F931FE81BF90B20916C0030916D0046
S11301200E94500496958795969587959695879500
S11301309A8F898F40916C0050916D009A010E94B2
S113014050049695879596958795969587959C01E5
S1130150220F331F880F991F880F991F880F991F2B
S1130160820F931F481B590B20916A0030916B003A
S11301700E9450044C019694879496948794969484
S1130180879460906A0070906B0093010E94500401
S11301909695879596958795969587959C01220FB8
S11301A0331F880F991F880F991F880F991F820F7B
S11301B0931F681A790A1BBA8BB3E3FBAA24A0F82D
S11301C0B12CAA0CBB1CAA0CBB1CAA0CBB1CAA0CF1
S11301D0BB1CE2FBCC24C0F8D12CD694DC2CCC2460
S11301E0D794C794CA28C82A43FBEE24E0F8F12C1C
S11301F0EE0CFF1CEE0CFF1CEE0CFF1CEE0CFF1CA7
S1130200EE0CFF1CEC2863FA442440F8512C002423
S1130210569447940794569447940794542C402C2E
S11302204E284BBA95B384E0982795BB95B389279C
S113023085BB1BBA1BBA8BB302FB222720F9282BE0
S1130240E1FB222420F8312C220C331C220C331C19
S1130250220C331C220C331C222A01FB882780F930
S113026089831A8229813A81220F331F229532957C
S1130270307F3227207F3227222942FB992790F9A9
S11302809B831C828B819C81880F991F822B698D93
S11302906470862B62FAAA27A0F9AD831E826D8151
S11302A07E81660F771F660F771F660F771F682B97
S11302B041FBBB27B0F9BF8318862F813885002402
S11302C0369527950794369527950794322F202D38
S11302D0262B81FA882780F989871A8689859A8549
S11302E09695982F882797958795822B8BBB95B3E6
S11302F082E0982795BB95B3892785BB1BBA1BBAA7
S11303008BB3E170E82B902F91709B871C868B85B3
S11303109C85880F991F8E2BA42FA170AD871E86F4
S11303204D855E85440F551F440F551F482BB98DCD
S1130330B170BF87188A2F853889220F331F220F87
S1130340331F220F331F242BE62DE170E98B1A8A09
S113035089899A8982959295907F9827807F98279A
S1130360822BF82DF170FB8B1C8A4B895C89440F1E
S1130370551F42955295507F5427407F5427482B50
S1130380898D869581708D8B1E8A2D893E890024E6
S1130390369527950794369527950794322F202D67
S11303A0242B61FA992790F99F8B188E8F89988D49
S11303B09695982F882797958795822B8BBB95B315
S11303C081E0982795BB95B3892785BB1BBA6A96AC
S11303D00FB6F894DEBF0FBECDBFDF91CF911F9152
S11303E00F91FF90EF90DF90CF90BF90AF909F90D0
S11303F08F907F906F905F904F903F902F900895D3
S11304008FEF8ABB90EE97BB84BB9FEB91BB8BBBFA
S11304108FE188BB15BA80EC82BB1BBA87E085BB31
S11304202FEF40E752E0215040405040E1F700C038
S1130430000015BA78948EB58C608EBD89B7806142
S113044089BF81E19AE79BBD8ABDC1E0D0E00F2E50
S1130450F7E1EF2EF12CF02D0BE310E06894DD248E
S1130460D5F8B3993DC0809169002091650090E072
S113047002C0959587952A95E2F780FD40C080914A
S11304806A0090916B00479750F480916A009091B4
S11304906B00019690936B0080936A0004C01092E5
S11304A06B0010926A008091650020916900AE0192
S11304B002C0440F551F8A95E2F7CA01822B80932C
S11304C069008091680020916900AE0102C0440F68
S11304D0551F8A95E2F7CA01822B809369000FC0E9
S11304E08091650020916900AE0102C0440F551F40
S11304F08A95E2F7CA018095822380936900B499B2
S11305003DC0809169002091660090E002C09595FD
S113051087952A95E2F780FD40C080916A0090910A
S11305206B00029750F080916A0090916B000197E4
S113053090936B0080936A0004C0F0926B00E09289
S11305406A008091660020916900AE0102C0440FE8
S1130550551F8A95E2F7CA01822B80936900809126
S1130560680020916900AE0102C0440F551F8A95AE
S1130570E2F7CA01822B809369000FC08091660064
S113058020916900AE0102C0440F551F8A95E2F71D
S1130590CA018095822380936900B19943C08091F8
S11305A069002091630090E002C0959587952A9593
S11305B0E2F780FD46C080916C0090916D00CB976E
S11305C050F480916C0090916D00019690936D00B1
S11305D080936C0004C010926D0010926C00109215
S11305E06F0010926E001DBC1CBC809163002091B2
S11305F06900AE0102C0440F551F8A95E2F7CA0193
S1130600822B809369008091680020916900AE017B
S113061002C0440F551F8A95E2F7CA01822B8093CA
S113062069000FC08091630020916900AE0102C08F
S1130630440F551F8A95E2F7CA018095822380935F
S11306406900B29943C0809169002091640090E0F0
S113065002C0959587952A95E2F780FD46C0809162
S11306606C0090916D00029750F080916C00909115
S11306706D00019790936D0080936C0004C01093FB
S11306806D0000936C0010926F0010926E001DBC00
S11306901CBC8091640020916900AE0102C0440F2B
S11306A0551F8A95E2F7CA01822B809369008091D5
S11306B0680020916900AE0102C0440F551F8A955D
S11306C0E2F7CA01822B809369000FC08091640015
S11306D020916900AE0102C0440F551F8A95E2F7CC
S11306E0CA01809582238093690086991EC08091F7
S11306F069002091610090E002C0959587952A9544
S1130700E2F780FD21C082B38D2582BB8091610018
S113071020916900AE0102C0440F551F8A95E2F78B
S1130720CA01822B809369000FC0809161002091DF
S11307306900AE0102C0440F551F8A95E2F7CA0151
S11307408095822380936900B09937C080916900B5
S11307502091620090E002C0959587952A95E2F772
S113076080FD3AC08091600020916900AE0102C012
S1130770440F551F8A95E2F7CA01822780936900C6
S11307808091620020916900AE0102C0440F551FA0
S11307908A95E2F7CA01822B8093690080916800F0
S11307A020916900AE0102C0440F551F8A95E2F7FB
S11307B0CA01822B809369000FC08091620020914E
S11307C06900AE0102C0440F551F8A95E2F7CA01C1
S11307D080958223809369000E94490042CE1F9233
S11307E00F920FB60F9211242F933F934F936F9351
S11307F07F938F939F9380916E0090916F000196E9
S113080090936F0080936E0080916E0090916F00C2
S1130810CC9769F480916C0090916D00019690934F
S11308206D0080936C0010926F0010926E008091A6
S11308306C0090916D00CC9769F480916A0090915E
S11308406B00019690936B0080936A0010926D0088
S113085010926C0080916A0090916B00489721F48B
S113086010926B0010926A008091680040916900B8
S113087021E030E0B90102C0660F771F8A95E2F7E4
S1130880CB01842B809369009F918F917F916F910D
S11308904F913F912F910F900FBE0F901F9018957D
S11308A0A29FB001B39FC001A39F700D811D1124AD
S11308B0911DB29F700D811D1124911D0895F8940E
S10508C0FFCF64
S10B08C207060504030201000E
S9030000FC
