:100000000C942A000C9447000C9447000C94470071
:100010000C9447000C9447000C9447000C94DA04AD
:100020000C9447000C9447000C9447000C94470034
:100030000C9447000C9447000C9447000C94470024
:100040000C9447000C9447000C9447000C94470014
:100050000C94470011241FBECFE5D8E0DEBFCDBF12
:1000600010E0A0E6B0E0E0E1FBE002C005900D92F8
:10007000A836B107D9F720E0A8E6B0E001C01D928C
:10008000A637B207E1F70E94C5010C9486050C94CF
:10009000000090E09798EFE1FEE43197F1F700C09F
:1000A0000000979AEFE1FEE43197F1F700C00000FD
:1000B0009F5F891778F708952F923F924F925F9232
:1000C0006F927F928F929F92AF92BF92CF92DF9268
:1000D000EF92FF920F931F93CF93DF93CDB7DEB7CD
:1000E0002E970FB6F894DEBF0FBECDBF7DEC879F75
:1000F000512D1124569556955695952F990F592E99
:10010000550C550C950D891B679F912D11249695C3
:1001100096959695592E550C452C440C440C540C30
:100120006519479F712D1124769576957695572EF2
:10013000550C452C440C440C540C45191BBA5BB2AD
:1001400043FB882480F8912C00249694879407948C
:10015000969487940794982C802C852863FBAA2476
:10016000A0F8B12CAA0CBB1CAA0CBB1CAA0CBB1C73
:10017000AA0CBB1CAA0CBB1CA82883FBCC24C0F86F
:10018000D12CCC0CDD1CCC0CDD1CCC0CDD1CCC0C27
:10019000DD1CCA2882FBEE24E0F8F12CF694FE2C3C
:1001A000EE24F794E794CE28CBBAE5B26894FF2406
:1001B000F2F8EF24E5BAE5B2FE24F5BA1BBA1BBA91
:1001C000FBB252FBEE24E0F842FB002700F910E0FE
:1001D000000F111F000F111F000F111F0E29F02A11
:1001E00071FB222720F92D871E860D851E85169509
:1001F000102F0027179507950F2962FBAA27A0F952
:10020000B0E0AA0FBB1F0A2BA92FA470A02B61FB83
:10021000EE27E0F9F0E00024F695E7950794F695CF
:10022000E7950794FE2FE02DEA2B81FB222720F98A
:1002300030E022953295307F3227207F32272E2BD7
:1002400051FB662460F8712C660C771C660C771CD9
:10025000660C771C660C771C660C771C622A6BBADE
:1002600035B322E0322735BB35B3232725BB1BBA74
:100270001BBA3BB3817040FB222420F8312C220CA6
:10028000331C220C331C220C331C220C331C282A56
:10029000232A717079831A82A981BA81AA0FBB1FA0
:1002A000A295B295B07FBA27A07FBA27A229617024
:1002B0006B831C822B813C81220F331F220F331F43
:1002C0002A2B692F61706D831E82ED81FE81EE0FF6
:1002D000FF1FEE0FFF1FEE0FFF1FE22B4695417031
:1002E0004F8318866F8178857695762F6627779568
:1002F00067956E2B517059871A8629853A85220F8A
:10030000331F262B969591709B871C868B859C8529
:100310000024969587950794969587950794982F2E
:10032000802D822B8BBB95B381E0982795BB95B32D
:10033000892785BB1BBA80916A0040916B0021E040
:1003400030E0D90102C0AA0FBB1F8A95E2F7CD01A8
:100350008095842380936B002E960FB6F894DEBFB1
:100360000FBECDBFDF91CF911F910F91FF90EF9006
:10037000DF90CF90BF90AF909F908F907F906F90C5
:100380005F904F903F902F9008958FEF8ABB90EE33
:1003900097BB84BB9FEB91BB8BBB8FE188BB15BA2E
:1003A00080EC82BB1BBA87E085BB15BA8EB58C602A
:1003B0008EBD89B7806189BF81E19AE79BBD8ABD07
:1003C0007894C1E0D0E06894DD24D5F80F2EF7E1F1
:1003D000EF2EF12CF02D0BE310E0B39977C0809154
:1003E0006B002091650090E002C0959587952A9555
:1003F000E2F780FD7AC080916B002091600090E070
:1004000002C0959587952A95E2F780FD31C08091CD
:10041000700090917100479750F480917000909116
:1004200071000196909371008093700004C0109247
:100430007100109270008091650020916B00AE01F8
:1004400002C0440F551F8A95E2F7CA01822B8093A0
:100450006B0040917000509171006091720070913A
:10046000730080917400909175000E945C003DC003
:1004700080916C0090916D00479750F480916C00D2
:1004800090916D00019690936D0080936C0004C074
:1004900010926D0010926C008091650020916B00AD
:1004A000AE0102C0440F551F8A95E2F7CA01822BA4
:1004B00080936B0040916C0050916D0060916E00D4
:1004C00070916F0080E00E945C000FC08091650019
:1004D00020916B00AE0102C0440F551F8A95E2F7D0
:1004E000CA018095822380936B00B49977C0809174
:1004F0006B002091660090E002C0959587952A9543
:10050000E2F780FD7AC080916B002091600090E05E
:1005100002C0959587952A95E2F780FD31C08091BC
:10052000700090917100029750F08091700090914E
:1005300071000197909371008093700004C0F09255
:100540007100E09270008091660020916B00AE0116
:1005500002C0440F551F8A95E2F7CA01822B80938F
:100560006B00409170005091710060917200709129
:10057000730080917400909175000E945C003DC0F2
:1005800080916C0090916D00029750F080916C000A
:1005900090916D00019790936D0080936C0004C062
:1005A000F0926D00E0926C008091660020916B00EB
:1005B000AE0102C0440F551F8A95E2F7CA01822B93
:1005C00080936B0040916C0050916D0060916E00C3
:1005D00070916F0080E00E945C000FC08091660007
:1005E00020916B00AE0102C0440F551F8A95E2F7BF
:1005F000CA018095822380936B00B1997DC0809160
:100600006B002091630090E002C0959587952A9534
:10061000E2F780FD80C080916B002091600090E047
:1006200002C0959587952A95E2F780FD37C08091A5
:10063000720090917300CB9750F48091720090916A
:1006400073000196909373008093720004C010921F
:1006500073001092720010927500109274001DBC0D
:100660001CBC8091630020916B00AE0102C0440F5E
:10067000551F8A95E2F7CA01822B80936B00409147
:1006800070005091710060917200709173008091C0
:100690007400909175000E945C003DC080916E00D6
:1006A00090916F00CB9750F480916E0090916F0005
:1006B000019690936F0080936E0004C010926F00BB
:1006C00010926E008091630020916B00AE0102C019
:1006D000440F551F8A95E2F7CA01822B80936B0065
:1006E00040916C0050916D0060916E0070916F00B0
:1006F00080E00E945C000FC08091630020916B003D
:10070000AE0102C0440F551F8A95E2F7CA018095D9
:10071000822380936B00B2997DC080916B00209101
:10072000640090E002C0959587952A95E2F780FDD8
:1007300080C080916B002091600090E002C0959590
:1007400087952A95E2F780FD37C0809172009091DD
:100750007300029750F0809172009091730001979E
:10076000909373008093720004C010937300009301
:10077000720010927500109274001DBC1CBC809118
:10078000640020916B00AE0102C0440F551F8A9592
:10079000E2F7CA01822B80936B0040917000509168
:1007A000710060917200709173008091740090915B
:1007B00075000E945C003DC080916E0090916F00BA
:1007C000029750F080916E0090916F000197909386
:1007D0006F0080936E0004C010936F0000936E0052
:1007E0008091640020916B00AE0102C0440F551F40
:1007F0008A95E2F7CA01822B80936B0040916C00CE
:1008000050916D0060916E0070916F0080E00E94C9
:100810005C000FC08091640020916B00AE0102C0AB
:10082000440F551F8A95E2F7CA0180958223809371
:100830006B0086991EC080916B002091610090E052
:1008400002C0959587952A95E2F780FD21C082B375
:100850008D2582BB8091610020916B00AE0102C0AA
:10086000440F551F8A95E2F7CA01822B80936B00D3
:100870000FC08091610020916B00AE0102C0440F57
:10088000551F8A95E2F7CA018095822380936B00F9
:10089000B09969C080916B002091620090E002C025
:1008A000959587952A95E2F780FD6CC020917000A0
:1008B0003091710080916C0090916D00281739077C
:1008C000D9F4209172003091730080916E00909164
:1008D0006F002817390781F4809168002091690022
:1008E000AE0102C0440F551F8A95E2F7CA018095F8
:1008F00082238093690046C08091600020916B0044
:10090000AE0102C0440F551F8A95E2F7CA01822743
:1009100080936B008091620020916B00AE0102C059
:10092000440F551F8A95E2F7CA01822B80936B0012
:1009300080916B002091600090E002C095958795B2
:100940002A95E2F780FD1EC0409170005091710021
:1009500060917200709173008091740090917500A5
:100960000E945C000FC08091620020916B00AE017C
:1009700002C0440F551F8A95E2F7CA018095822371
:1009800080936B0080916B002091600090E002C02A
:10099000959587952A95E2F780FF1FCD40916C00D1
:1009A00050916D0060916E0070916F0080E00E9428
:1009B0005C0013CD1F920F920FB60F9211242F934C
:1009C0003F934F935F936F937F938F939F93AF93D7
:1009D000BF93EF93FF9380917400909175000196FF
:1009E00090937500809374008091740090917500CD
:1009F000CC97E9F4809172009091730001969093E6
:100A000073008093720010927500109274008091B0
:100A100068004091690021E030E0B90102C0660F32
:100A2000771F8A95E2F7CB01842B80936900809130
:100A3000720090917300CC9769F48091700090914E
:100A40007100019690937100809370001092730072
:100A5000109272008091700090917100489721F47B
:100A6000109271001092700080916B0020916000D4
:100A700090E002C0959587952A95E2F780FD0EC01B
:100A800040917000509171006091720070917300FC
:100A900080917400909175000E945C00209172001A
:100AA0003091730080916E0090916F002817390784
:100AB000E1F4209170003091710080916C00909170
:100AC0006D002817390789F480916900209168002A
:100AD00090E002C0959587952A95E2F780FF05C0C2
:100AE000959B03C081E00E944900FF91EF91BF9167
:100AF000AF919F918F917F916F915F914F913F91B6
:100B00002F910F900FBE0F901F901895F894FFCF64
:080B10000706050403020100C1
:00000001FF
