:100000000C942A000C9447000C9447000C94470071
:100010000C9447000C9447000C9447000C945B032D
:100020000C9447000C9447000C9447000C94470034
:100030000C9447000C9447000C9447000C94470024
:100040000C9447000C9447000C9447000C94470014
:100050000C94470011241FBECFE5D8E0DEBFCDBF12
:1000600010E0A0E6B0E0EAE9F7E002C005900D92EA
:10007000A836B107D9F720E0A8E6B0E001C01D928C
:10008000AC36B207E1F70E9400020C94CB030C944B
:1000900000002F923F924F925F926F927F928F92C9
:1000A0009F92AF92BF92CF92DF92EF92FF920F9307
:1000B0001F93CF93DF93CDB7DEB76A970FB6F8944F
:1000C000DEBF0FBECDBF20916A0030916B00ADEC5A
:1000D000BCEC0E94BC038C011695079516950795FC
:1000E00016950795E0916A00F0916B009F010E94C0
:1000F000BC039695879596958795969587959C01CF
:10010000220F331F880F991F880F991F880F991F7F
:10011000820F931FE81BF90B209166003091670056
:100120000E94BC0396958795969587959695879599
:100130009A8F898F40916600509167009A010E94C2
:10014000BC039695879596958795969587959C017E
:10015000220F331F880F991F880F991F880F991F2F
:10016000820F931F481B590B20916400309165004A
:100170000E94BC034C01969487949694879496941D
:100180008794609064007090650093010E94BC03A6
:100190009695879596958795969587959C01220FBC
:1001A000331F880F991F880F991F880F991F820F7F
:1001B000931F681A790A1BBA8BB3E3FBAA24A0F831
:1001C000B12CAA0CBB1CAA0CBB1CAA0CBB1CAA0CF5
:1001D000BB1CE2FBCC24C0F8D12CD694DC2CCC2464
:1001E000D794C794CA28C82A43FBEE24E0F8F12C20
:1001F000EE0CFF1CEE0CFF1CEE0CFF1CEE0CFF1CAB
:10020000EE0CFF1CEC2863FA442440F8512C002427
:10021000569447940794569447940794542C402C32
:100220004E284BBA95B384E0982795BB95B38927A0
:1002300085BB1BBA1BBA8BB302FB222720F9282BE4
:10024000E1FB222420F8312C220C331C220C331C1D
:10025000220C331C220C331C222A01FB882780F934
:1002600089831A8229813A81220F331F2295329580
:10027000307F3227207F3227222942FB992790F9AD
:100280009B831C828B819C81880F991F822B698D97
:100290006470862B62FAAA27A0F9AD831E826D8155
:1002A0007E81660F771F660F771F660F771F682B9B
:1002B00041FBBB27B0F9BF8318862F813885002406
:1002C000369527950794369527950794322F202D3C
:1002D000262B81FA882780F989871A8689859A854D
:1002E0009695982F882797958795822B8BBB95B3EA
:1002F00082E0982795BB95B3892785BB1BBA1BBAAB
:100300008BB3E170E82B902F91709B871C868B85B7
:100310009C85880F991F8E2BA42FA170AD871E86F8
:100320004D855E85440F551F440F551F482BB98DD1
:10033000B170BF87188A2F853889220F331F220F8B
:10034000331F220F331F242BE62DE170E98B1A8A0D
:1003500089899A8982959295907F9827807F98279E
:10036000822BF82DF170FB8B1C8A4B895C89440F22
:10037000551F42955295507F5427407F5427482B54
:10038000898D869581708D8B1E8A2D893E890024EA
:10039000369527950794369527950794322F202D6B
:1003A000242B61FA992790F99F8B188E8F89988D4D
:1003B0009695982F882797958795822B8BBB95B319
:1003C00081E0982795BB95B3892785BB1BBA6A96B0
:1003D0000FB6F894DEBF0FBECDBFDF91CF911F9156
:1003E0000F91FF90EF90DF90CF90BF90AF909F90D4
:1003F0008F907F906F905F904F903F902F900895D7
:100400008FEF8ABB90EE97BB84BB9FEB91BB8BBBFE
:100410008FE188BB15BA80EC82BB1BBA87E085BB35
:100420002FEF40E752E0215040405040E1F700C03C
:10043000000015BA78948EB58C608EBD89B7806146
:1004400089BF81E19AE79BBD8ABDC1E0D0E00F2E54
:10045000F7E1EF2EF12CF02D0BE310E08091690015
:1004600020916800AE0102C0440F551F2A95E2F7A3
:1004700090E084239523019789F40E94490080919C
:10048000680020916900AE0102C0440F551F8A9593
:10049000E2F7CA018095822380936900B3992FC047
:1004A000809169002091620090E002C09595879547
:1004B0002A95E2F780FD32C080916400909165003A
:1004C000479750F480916400909165000196909355
:1004D00065008093640004C010926500109264006F
:1004E0008091620020916900AE0102C0440F551F47
:1004F0008A95E2F7CA01822B809369000FC0809130
:10050000620020916900AE0102C0440F551F8A9518
:10051000E2F7CA018095822380936900B4992FC0C5
:10052000809169002091630090E002C095958795C5
:100530002A95E2F780FD32C08091640090916500B9
:10054000029750F08091640090916500019790931C
:1005500065008093640004C0F0926500E09264003E
:100560008091630020916900AE0102C0440F551FC5
:100570008A95E2F7CA01822B809369000FC08091AF
:10058000630020916900AE0102C0440F551F8A9597
:10059000E2F7CA018095822380936900B19935C042
:1005A000809169002091600090E002C09595879548
:1005B0002A95E2F780FD38C080916600909167002F
:1005C000CB9750F4809166009091670001969093CC
:1005D00067008093660004C0109267001092660066
:1005E00010926B0010926A001DBC1CBC80916000D0
:1005F00020916900AE0102C0440F551F8A95E2F7B1
:10060000CA01822B809369000FC080916000209105
:100610006900AE0102C0440F551F8A95E2F7CA0176
:100620008095822380936900B29933C080916900DC
:100630002091610090E002C0959587952A95E2F798
:1006400080FD36C08091660090916700029750F05F
:100650008091660090916700019790936700809366
:10066000660004C0109367000093660010926B0050
:1006700010926A008091610020916900AE0102C071
:10068000440F551F8A95E2F7CA01822B80936900B7
:100690000FC08091610020916900AE0102C0440F3B
:1006A000551F8A95E2F7CA018095822380936900DD
:1006B0000E944900D3CE1F920F920FB60F921124C1
:1006C0002F933F934F936F937F938F939F9380913B
:1006D0006A0090916B00019690936B0080936A0082
:1006E00080916A0090916B00CC9769F480916600CC
:1006F0009091670001969093670080936600109236
:100700006B0010926A008091660090916700CC9710
:1007100069F4809164009091650001969093650062
:1007200080936400109267001092660080916400CC
:1007300090916500489721F4109265001092640032
:10074000809168004091690021E030E0B90102C069
:10075000660F771F8A95E2F7CB01842B809369009F
:100760009F918F917F916F914F913F912F910F901A
:100770000FBE0F901F901895A29FB001B39FC001AC
:10078000A39F700D811D1124911DB29F700D811DBD
:0A0790001124911D0895F894FFCF85
:08079A00040302010C000F0032
:00000001FF
